{
  "contractName": "Owned",
  "abi": [
    {
      "constant": true,
      "inputs": [],
      "name": "owner",
      "outputs": [
        {
          "name": "",
          "type": "address"
        }
      ],
      "payable": false,
      "stateMutability": "view",
      "type": "function"
    },
    {
      "inputs": [],
      "payable": false,
      "stateMutability": "nonpayable",
      "type": "constructor"
    },
    {
      "constant": false,
      "inputs": [
        {
          "name": "newOwner",
          "type": "address"
        }
      ],
      "name": "transferOwnership",
      "outputs": [],
      "payable": false,
      "stateMutability": "nonpayable",
      "type": "function"
    }
  ],
  "bytecode": "0x608060405234801561001057600080fd5b50336000806101000a81548173ffffffffffffffffffffffffffffffffffffffff021916908373ffffffffffffffffffffffffffffffffffffffff1602179055506101da806100606000396000f30060806040526004361061004c576000357c0100000000000000000000000000000000000000000000000000000000900463ffffffff1680638da5cb5b14610051578063f2fde38b146100a8575b600080fd5b34801561005d57600080fd5b506100666100eb565b604051808273ffffffffffffffffffffffffffffffffffffffff1673ffffffffffffffffffffffffffffffffffffffff16815260200191505060405180910390f35b3480156100b457600080fd5b506100e9600480360381019080803573ffffffffffffffffffffffffffffffffffffffff169060200190929190505050610110565b005b6000809054906101000a900473ffffffffffffffffffffffffffffffffffffffff1681565b6000809054906101000a900473ffffffffffffffffffffffffffffffffffffffff1673ffffffffffffffffffffffffffffffffffffffff163373ffffffffffffffffffffffffffffffffffffffff1614151561016b57600080fd5b806000806101000a81548173ffffffffffffffffffffffffffffffffffffffff021916908373ffffffffffffffffffffffffffffffffffffffff160217905550505600a165627a7a72305820037ff6b6f29c747239401e09390c58db5cd2b6b1b127fabe7a3efbad56c405430029",
  "source": "pragma solidity ^0.4.20;\n\ncontract Owned {\n    address public owner;\n\n    constructor()  public {\n        owner = msg.sender;\n    }\n\n    modifier onlyOwner {\n        require(msg.sender == owner);\n        _;\n    }\n\n    function transferOwnership(address newOwner) onlyOwner  public {\n        owner = newOwner;\n    }\n}\n\ncontract P2pi is Owned{\n\n    event memberAdded(address targetMember, string membername,bool isApproved);\n    event memberApproved(address targetMember, string membername,bool isApproved);\n\n    struct Member{\n        address memberAdd;\n        string name;\n        uint memberSince;\n        bool isApproved;\n    }\n\n    mapping(address => uint) public memberId;\n    Member[] public members;\n    uint public memberCount;\n\n    modifier onlyMembers{\n        require(memberId[msg.sender] !=0);\n        require(members[memberId[msg.sender]].isApproved == true);\n        _;\n    }\n    constructor() public{\n        addMember(0,\"\");\n        addMember(owner,'founder');\n    }\n    function addMember(address targetMember, string memberName) onlyOwner public{\n        uint id = memberId[targetMember];\n        if(id==0){\n          id = members.length++;\n          memberId[targetMember] = id;\n        }\n        members[id] = Member({memberAdd:targetMember,memberSince:now, name: memberName,isApproved:true});\n        memberCount++;\n        emit memberAdded(targetMember,memberName,true);\n    }\n\n    function join(string memberName) public {\n        require(memberId[msg.sender] == 0);\n        uint id = memberId[msg.sender];\n        if(id==0){\n          id = members.length++;\n          memberId[msg.sender] = id;\n        }\n        members[memberCount] = Member({memberAdd:msg.sender,memberSince:now, name: memberName,isApproved:false});\n        memberCount++;\n        emit memberAdded(msg.sender,memberName,false);\n    }\n    function approveMember(address targetMember) onlyOwner public {\n        require(memberId[targetMember] != 0);\n        uint id = memberId[targetMember];\n        members[id].isApproved = true;\n        emit memberApproved(targetMember,members[id].name,true);\n    }\n\n    event proposalAdded(uint proposapId,string desc);\n    event proposalJoined(uint proposalid, address targetMember);\n    event emiPayment(uint proposalId, address targetMember, uint256 amount);\n\n    struct Payments{\n        address memberAdd;\n        uint paymentTS;\n        uint amount;\n    }\n    mapping(address =>uint256) paymentCount;\n\n    struct Claim{\n        address claimer;\n        uint claimAmount;\n        string claimReason;\n        bool isApproved;\n        uint voteInSupport;\n        uint voteNotInSupport;\n        mapping(address => bool) voted;\n    }\n\n    struct Proposal{\n        address creator;\n        uint amount;\n        uint minAmount;\n        string desc;\n        bytes32 proposalHash;\n        bool isApproved;\n        uint memberCount;\n        mapping(address =>bool) isPart;\n        mapping(address => mapping(uint256 => Payments)) memberPayments;\n        mapping(address =>mapping(uint => Claim)) claims;\n    }\n\n\n    Proposal[] public proposals;\n    uint public numProposals;\n    Claim[] public claim;\n    mapping(address => uint) claimCount;\n\n    function newProposal(\n        uint weiAmount,\n        string description,\n        bytes32 ppHash\n        ) onlyMembers public returns(uint proposalId){\n            proposalId = proposals.length++;\n            Proposal storage p = proposals[proposalId];\n            p.creator = msg.sender;\n            p.minAmount = weiAmount;\n            p.desc = description;\n            p.proposalHash = ppHash;\n            p.isApproved = false;\n            p.isPart[msg.sender] = true;\n            p.memberCount++;\n            numProposals++;\n\n            emit proposalAdded(proposalId,description);\n\n            return proposalId;\n    }\n\n\n   function joinPorposal(uint proposalId) onlyMembers public{\n       Proposal storage p = proposals[proposalId];\n       require(!p.isPart[msg.sender]);\n       p.isPart[msg.sender] = true;\n       p.memberCount++;\n       emit proposalJoined(proposalId,msg.sender);\n   }\n\n   function checkIfPartOfProposal(uint proposalId) onlyMembers view public returns(bool isPart){\n     Proposal storage p = proposals[proposalId];\n     return p.isPart[msg.sender];\n   }\n\n  }\n",
  "sourcePath": "/Users/tejasghutukade/p2pi/contracts/P2pi.sol",
  "compiler": {
    "name": "solc",
    "version": "0.4.23+commit.124ca40d.Emscripten.clang"
  },
  "schemaVersion": "2.0.0",
  "updatedAt": "2018-05-30T15:50:49.686Z"
}