{
  "contractName": "P2pi",
  "abi": [
    {
      "constant": true,
      "inputs": [
        {
          "name": "",
          "type": "uint256"
        }
      ],
      "name": "proposals",
      "outputs": [
        {
          "name": "creator",
          "type": "address"
        },
        {
          "name": "amount",
          "type": "uint256"
        },
        {
          "name": "minAmount",
          "type": "uint256"
        },
        {
          "name": "desc",
          "type": "string"
        },
        {
          "name": "proposalHash",
          "type": "bytes32"
        },
        {
          "name": "isApproved",
          "type": "bool"
        },
        {
          "name": "memberCount",
          "type": "uint256"
        }
      ],
      "payable": false,
      "stateMutability": "view",
      "type": "function"
    },
    {
      "constant": true,
      "inputs": [],
      "name": "memberCount",
      "outputs": [
        {
          "name": "",
          "type": "uint256"
        }
      ],
      "payable": false,
      "stateMutability": "view",
      "type": "function"
    },
    {
      "constant": true,
      "inputs": [
        {
          "name": "",
          "type": "uint256"
        }
      ],
      "name": "claim",
      "outputs": [
        {
          "name": "claimer",
          "type": "address"
        },
        {
          "name": "claimAmount",
          "type": "uint256"
        },
        {
          "name": "claimReason",
          "type": "string"
        },
        {
          "name": "isApproved",
          "type": "bool"
        },
        {
          "name": "voteInSupport",
          "type": "uint256"
        },
        {
          "name": "voteNotInSupport",
          "type": "uint256"
        }
      ],
      "payable": false,
      "stateMutability": "view",
      "type": "function"
    },
    {
      "constant": true,
      "inputs": [
        {
          "name": "",
          "type": "address"
        }
      ],
      "name": "memberId",
      "outputs": [
        {
          "name": "",
          "type": "uint256"
        }
      ],
      "payable": false,
      "stateMutability": "view",
      "type": "function"
    },
    {
      "constant": true,
      "inputs": [],
      "name": "numProposals",
      "outputs": [
        {
          "name": "",
          "type": "uint256"
        }
      ],
      "payable": false,
      "stateMutability": "view",
      "type": "function"
    },
    {
      "constant": true,
      "inputs": [
        {
          "name": "",
          "type": "uint256"
        }
      ],
      "name": "members",
      "outputs": [
        {
          "name": "memberAdd",
          "type": "address"
        },
        {
          "name": "name",
          "type": "string"
        },
        {
          "name": "memberSince",
          "type": "uint256"
        },
        {
          "name": "isApproved",
          "type": "bool"
        }
      ],
      "payable": false,
      "stateMutability": "view",
      "type": "function"
    },
    {
      "constant": true,
      "inputs": [],
      "name": "owner",
      "outputs": [
        {
          "name": "",
          "type": "address"
        }
      ],
      "payable": false,
      "stateMutability": "view",
      "type": "function"
    },
    {
      "constant": false,
      "inputs": [
        {
          "name": "newOwner",
          "type": "address"
        }
      ],
      "name": "transferOwnership",
      "outputs": [],
      "payable": false,
      "stateMutability": "nonpayable",
      "type": "function"
    },
    {
      "inputs": [],
      "payable": false,
      "stateMutability": "nonpayable",
      "type": "constructor"
    },
    {
      "anonymous": false,
      "inputs": [
        {
          "indexed": false,
          "name": "targetMember",
          "type": "address"
        },
        {
          "indexed": false,
          "name": "membername",
          "type": "string"
        },
        {
          "indexed": false,
          "name": "isApproved",
          "type": "bool"
        }
      ],
      "name": "memberAdded",
      "type": "event"
    },
    {
      "anonymous": false,
      "inputs": [
        {
          "indexed": false,
          "name": "targetMember",
          "type": "address"
        },
        {
          "indexed": false,
          "name": "membername",
          "type": "string"
        },
        {
          "indexed": false,
          "name": "isApproved",
          "type": "bool"
        }
      ],
      "name": "memberApproved",
      "type": "event"
    },
    {
      "anonymous": false,
      "inputs": [
        {
          "indexed": false,
          "name": "proposapId",
          "type": "uint256"
        },
        {
          "indexed": false,
          "name": "desc",
          "type": "string"
        }
      ],
      "name": "proposalAdded",
      "type": "event"
    },
    {
      "anonymous": false,
      "inputs": [
        {
          "indexed": false,
          "name": "proposalid",
          "type": "uint256"
        },
        {
          "indexed": false,
          "name": "targetMember",
          "type": "address"
        }
      ],
      "name": "proposalJoined",
      "type": "event"
    },
    {
      "anonymous": false,
      "inputs": [
        {
          "indexed": false,
          "name": "proposalId",
          "type": "uint256"
        },
        {
          "indexed": false,
          "name": "targetMember",
          "type": "address"
        },
        {
          "indexed": false,
          "name": "amount",
          "type": "uint256"
        }
      ],
      "name": "emiPayment",
      "type": "event"
    },
    {
      "constant": false,
      "inputs": [
        {
          "name": "targetMember",
          "type": "address"
        },
        {
          "name": "memberName",
          "type": "string"
        }
      ],
      "name": "addMember",
      "outputs": [],
      "payable": false,
      "stateMutability": "nonpayable",
      "type": "function"
    },
    {
      "constant": false,
      "inputs": [
        {
          "name": "memberName",
          "type": "string"
        }
      ],
      "name": "join",
      "outputs": [],
      "payable": false,
      "stateMutability": "nonpayable",
      "type": "function"
    },
    {
      "constant": false,
      "inputs": [
        {
          "name": "targetMember",
          "type": "address"
        }
      ],
      "name": "approveMember",
      "outputs": [],
      "payable": false,
      "stateMutability": "nonpayable",
      "type": "function"
    },
    {
      "constant": false,
      "inputs": [
        {
          "name": "weiAmount",
          "type": "uint256"
        },
        {
          "name": "description",
          "type": "string"
        },
        {
          "name": "ppHash",
          "type": "bytes32"
        }
      ],
      "name": "newProposal",
      "outputs": [
        {
          "name": "proposalId",
          "type": "uint256"
        }
      ],
      "payable": false,
      "stateMutability": "nonpayable",
      "type": "function"
    },
    {
      "constant": false,
      "inputs": [
        {
          "name": "proposalId",
          "type": "uint256"
        }
      ],
      "name": "joinPorposal",
      "outputs": [],
      "payable": false,
      "stateMutability": "nonpayable",
      "type": "function"
    },
    {
      "constant": true,
      "inputs": [
        {
          "name": "proposalId",
          "type": "uint256"
        }
      ],
      "name": "checkIfPartOfProposal",
      "outputs": [
        {
          "name": "isPart",
          "type": "bool"
        }
      ],
      "payable": false,
      "stateMutability": "view",
      "type": "function"
    }
  ],
  "bytecode": "0x60806040523480156200001157600080fd5b50336000806101000a81548173ffffffffffffffffffffffffffffffffffffffff021916908373ffffffffffffffffffffffffffffffffffffffff1602179055506200007e60006020604051908101604052806000815250620000f5640100000000026401000000009004565b620000ef6000809054906101000a900473ffffffffffffffffffffffffffffffffffffffff166040805190810160405280600781526020017f666f756e64657200000000000000000000000000000000000000000000000000815250620000f5640100000000026401000000009004565b62000586565b60008060009054906101000a900473ffffffffffffffffffffffffffffffffffffffff1673ffffffffffffffffffffffffffffffffffffffff163373ffffffffffffffffffffffffffffffffffffffff161415156200015357600080fd5b600160008473ffffffffffffffffffffffffffffffffffffffff1673ffffffffffffffffffffffffffffffffffffffff1681526020019081526020016000205490506000811415620001fc5760028054809190600101620001b59190620003df565b905080600160008573ffffffffffffffffffffffffffffffffffffffff1673ffffffffffffffffffffffffffffffffffffffff168152602001908152602001600020819055505b6080604051908101604052808473ffffffffffffffffffffffffffffffffffffffff168152602001838152602001428152602001600115158152506002828154811015156200024757fe5b906000526020600020906004020160008201518160000160006101000a81548173ffffffffffffffffffffffffffffffffffffffff021916908373ffffffffffffffffffffffffffffffffffffffff1602179055506020820151816001019080519060200190620002ba92919062000414565b506040820151816002015560608201518160030160006101000a81548160ff0219169083151502179055509050506003600081548092919060010191905055507f7af415d53a12b0d8f17517437f0029e1a1b986305c2f7ba21d58e87cfc5817b583836001604051808473ffffffffffffffffffffffffffffffffffffffff1673ffffffffffffffffffffffffffffffffffffffff1681526020018060200183151515158152602001828103825284818151815260200191508051906020019080838360005b838110156200039d57808201518184015260208101905062000380565b50505050905090810190601f168015620003cb5780820380516001836020036101000a031916815260200191505b5094505050505060405180910390a1505050565b8154818355818111156200040f576004028160040283600052602060002091820191016200040e91906200049b565b5b505050565b828054600181600116156101000203166002900490600052602060002090601f016020900481019282601f106200045757805160ff191683800117855562000488565b8280016001018555821562000488579182015b82811115620004875782518255916020019190600101906200046a565b5b50905062000497919062000512565b5090565b6200050f91905b808211156200050b57600080820160006101000a81549073ffffffffffffffffffffffffffffffffffffffff0219169055600182016000620004e591906200053a565b60028201600090556003820160006101000a81549060ff021916905550600401620004a2565b5090565b90565b6200053791905b808211156200053357600081600090555060010162000519565b5090565b90565b50805460018160011615610100020316600290046000825580601f1062000562575062000583565b601f01602090049060005260206000209081019062000582919062000512565b5b50565b611c7680620005966000396000f3006080604052600436106100d0576000357c0100000000000000000000000000000000000000000000000000000000900463ffffffff168063013cf08b146100d557806311aee380146101dd57806329213a2f14610208578063379607f51461024b5780633910682114610344578063400e39491461039b57806344b07a3e146103c65780635d37d8891461045b5780635daf08ca146104a05780636a786b071461058b5780638da5cb5b146105f4578063c127c2471461064b578063d4ee142e146106d4578063f2fde38b14610701575b600080fd5b3480156100e157600080fd5b5061010060048036038101908080359060200190929190505050610744565b604051808873ffffffffffffffffffffffffffffffffffffffff1673ffffffffffffffffffffffffffffffffffffffff16815260200187815260200186815260200180602001856000191660001916815260200184151515158152602001838152602001828103825286818151815260200191508051906020019080838360005b8381101561019c578082015181840152602081019050610181565b50505050905090810190601f1680156101c95780820380516001836020036101000a031916815260200191505b509850505050505050505060405180910390f35b3480156101e957600080fd5b506101f261085a565b6040518082815260200191505060405180910390f35b34801561021457600080fd5b50610249600480360381019080803573ffffffffffffffffffffffffffffffffffffffff169060200190929190505050610860565b005b34801561025757600080fd5b5061027660048036038101908080359060200190929190505050610aa4565b604051808773ffffffffffffffffffffffffffffffffffffffff1673ffffffffffffffffffffffffffffffffffffffff1681526020018681526020018060200185151515158152602001848152602001838152602001828103825286818151815260200191508051906020019080838360005b838110156103045780820151818401526020810190506102e9565b50505050905090810190601f1680156103315780820380516001836020036101000a031916815260200191505b5097505050505050505060405180910390f35b34801561035057600080fd5b50610385600480360381019080803573ffffffffffffffffffffffffffffffffffffffff169060200190929190505050610bb4565b6040518082815260200191505060405180910390f35b3480156103a757600080fd5b506103b0610bcc565b6040518082815260200191505060405180910390f35b3480156103d257600080fd5b5061044560048036038101908080359060200190929190803590602001908201803590602001908080601f01602080910402602001604051908101604052809392919081815260200183838082843782019150505050505091929192908035600019169060200190929190505050610bd2565b6040518082815260200191505060405180910390f35b34801561046757600080fd5b5061048660048036038101908080359060200190929190505050610e96565b604051808215151515815260200191505060405180910390f35b3480156104ac57600080fd5b506104cb60048036038101908080359060200190929190505050610fdd565b604051808573ffffffffffffffffffffffffffffffffffffffff1673ffffffffffffffffffffffffffffffffffffffff1681526020018060200184815260200183151515158152602001828103825285818151815260200191508051906020019080838360005b8381101561054d578082015181840152602081019050610532565b50505050905090810190601f16801561057a5780820380516001836020036101000a031916815260200191505b509550505050505060405180910390f35b34801561059757600080fd5b506105f2600480360381019080803590602001908201803590602001908080601f01602080910402602001604051908101604052809392919081815260200183838082843782019150505050505091929192905050506110e1565b005b34801561060057600080fd5b506106096113b4565b604051808273ffffffffffffffffffffffffffffffffffffffff1673ffffffffffffffffffffffffffffffffffffffff16815260200191505060405180910390f35b34801561065757600080fd5b506106d2600480360381019080803573ffffffffffffffffffffffffffffffffffffffff169060200190929190803590602001908201803590602001908080601f01602080910402602001604051908101604052809392919081815260200183838082843782019150505050505091929192905050506113d9565b005b3480156106e057600080fd5b506106ff600480360381019080803590602001909291905050506116b9565b005b34801561070d57600080fd5b50610742600480360381019080803573ffffffffffffffffffffffffffffffffffffffff1690602001909291905050506118df565b005b60058181548110151561075357fe5b90600052602060002090600a02016000915090508060000160009054906101000a900473ffffffffffffffffffffffffffffffffffffffff1690806001015490806002015490806003018054600181600116156101000203166002900480601f0160208091040260200160405190810160405280929190818152602001828054600181600116156101000203166002900480156108315780601f1061080657610100808354040283529160200191610831565b820191906000526020600020905b81548152906001019060200180831161081457829003601f168201915b5050505050908060040154908060050160009054906101000a900460ff16908060060154905087565b60035481565b60008060009054906101000a900473ffffffffffffffffffffffffffffffffffffffff1673ffffffffffffffffffffffffffffffffffffffff163373ffffffffffffffffffffffffffffffffffffffff161415156108bd57600080fd5b6000600160008473ffffffffffffffffffffffffffffffffffffffff1673ffffffffffffffffffffffffffffffffffffffff168152602001908152602001600020541415151561090c57600080fd5b600160008373ffffffffffffffffffffffffffffffffffffffff1673ffffffffffffffffffffffffffffffffffffffff168152602001908152602001600020549050600160028281548110151561095f57fe5b906000526020600020906004020160030160006101000a81548160ff0219169083151502179055507f9246f27b1f2d1e721de44e410e577689c6d70e3ec7f62302f12d6051d03ac6c4826002838154811015156109b857fe5b90600052602060002090600402016001016001604051808473ffffffffffffffffffffffffffffffffffffffff1673ffffffffffffffffffffffffffffffffffffffff1681526020018060200183151515158152602001828103825284818154600181600116156101000203166002900481526020019150805460018160011615610100020316600290048015610a905780601f10610a6557610100808354040283529160200191610a90565b820191906000526020600020905b815481529060010190602001808311610a7357829003601f168201915b505094505050505060405180910390a15050565b600781815481101515610ab357fe5b90600052602060002090600702016000915090508060000160009054906101000a900473ffffffffffffffffffffffffffffffffffffffff1690806001015490806002018054600181600116156101000203166002900480601f016020809104026020016040519081016040528092919081815260200182805460018160011615610100020316600290048015610b8b5780601f10610b6057610100808354040283529160200191610b8b565b820191906000526020600020905b815481529060010190602001808311610b6e57829003601f168201915b5050505050908060030160009054906101000a900460ff16908060040154908060050154905086565b60016020528060005260406000206000915090505481565b60065481565b6000806000600160003373ffffffffffffffffffffffffffffffffffffffff1673ffffffffffffffffffffffffffffffffffffffff1681526020019081526020016000205414151515610c2457600080fd5b600115156002600160003373ffffffffffffffffffffffffffffffffffffffff1673ffffffffffffffffffffffffffffffffffffffff16815260200190815260200160002054815481101515610c7657fe5b906000526020600020906004020160030160009054906101000a900460ff161515141515610ca357600080fd5b60058054809190600101610cb7919061197d565b9150600582815481101515610cc857fe5b90600052602060002090600a02019050338160000160006101000a81548173ffffffffffffffffffffffffffffffffffffffff021916908373ffffffffffffffffffffffffffffffffffffffff16021790555084816002018190555083816003019080519060200190610d3c9291906119af565b508281600401816000191690555060008160050160006101000a81548160ff02191690831515021790555060018160070160003373ffffffffffffffffffffffffffffffffffffffff1673ffffffffffffffffffffffffffffffffffffffff16815260200190815260200160002060006101000a81548160ff02191690831515021790555080600601600081548092919060010191905055506006600081548092919060010191905055507fdef5eb68084303ea7784dd059e253358026c571c4c285ff896d17277f79ca7d382856040518083815260200180602001828103825283818151815260200191508051906020019080838360005b83811015610e50578082015181840152602081019050610e35565b50505050905090810190601f168015610e7d5780820380516001836020036101000a031916815260200191505b50935050505060405180910390a1819150509392505050565b6000806000600160003373ffffffffffffffffffffffffffffffffffffffff1673ffffffffffffffffffffffffffffffffffffffff1681526020019081526020016000205414151515610ee857600080fd5b600115156002600160003373ffffffffffffffffffffffffffffffffffffffff1673ffffffffffffffffffffffffffffffffffffffff16815260200190815260200160002054815481101515610f3a57fe5b906000526020600020906004020160030160009054906101000a900460ff161515141515610f6757600080fd5b600583815481101515610f7657fe5b90600052602060002090600a020190508060070160003373ffffffffffffffffffffffffffffffffffffffff1673ffffffffffffffffffffffffffffffffffffffff16815260200190815260200160002060009054906101000a900460ff16915050919050565b600281815481101515610fec57fe5b90600052602060002090600402016000915090508060000160009054906101000a900473ffffffffffffffffffffffffffffffffffffffff1690806001018054600181600116156101000203166002900480601f0160208091040260200160405190810160405280929190818152602001828054600181600116156101000203166002900480156110be5780601f10611093576101008083540402835291602001916110be565b820191906000526020600020905b8154815290600101906020018083116110a157829003601f168201915b5050505050908060020154908060030160009054906101000a900460ff16905084565b600080600160003373ffffffffffffffffffffffffffffffffffffffff1673ffffffffffffffffffffffffffffffffffffffff1681526020019081526020016000205414151561113057600080fd5b600160003373ffffffffffffffffffffffffffffffffffffffff1673ffffffffffffffffffffffffffffffffffffffff16815260200190815260200160002054905060008114156111d6576002805480919060010161118f9190611a2f565b905080600160003373ffffffffffffffffffffffffffffffffffffffff1673ffffffffffffffffffffffffffffffffffffffff168152602001908152602001600020819055505b6080604051908101604052803373ffffffffffffffffffffffffffffffffffffffff16815260200183815260200142815260200160001515815250600260035481548110151561122257fe5b906000526020600020906004020160008201518160000160006101000a81548173ffffffffffffffffffffffffffffffffffffffff021916908373ffffffffffffffffffffffffffffffffffffffff1602179055506020820151816001019080519060200190611293929190611a61565b506040820151816002015560608201518160030160006101000a81548160ff0219169083151502179055509050506003600081548092919060010191905055507f7af415d53a12b0d8f17517437f0029e1a1b986305c2f7ba21d58e87cfc5817b533836000604051808473ffffffffffffffffffffffffffffffffffffffff1673ffffffffffffffffffffffffffffffffffffffff1681526020018060200183151515158152602001828103825284818151815260200191508051906020019080838360005b83811015611374578082015181840152602081019050611359565b50505050905090810190601f1680156113a15780820380516001836020036101000a031916815260200191505b5094505050505060405180910390a15050565b6000809054906101000a900473ffffffffffffffffffffffffffffffffffffffff1681565b60008060009054906101000a900473ffffffffffffffffffffffffffffffffffffffff1673ffffffffffffffffffffffffffffffffffffffff163373ffffffffffffffffffffffffffffffffffffffff1614151561143657600080fd5b600160008473ffffffffffffffffffffffffffffffffffffffff1673ffffffffffffffffffffffffffffffffffffffff16815260200190815260200160002054905060008114156114dc57600280548091906001016114959190611a2f565b905080600160008573ffffffffffffffffffffffffffffffffffffffff1673ffffffffffffffffffffffffffffffffffffffff168152602001908152602001600020819055505b6080604051908101604052808473ffffffffffffffffffffffffffffffffffffffff1681526020018381526020014281526020016001151581525060028281548110151561152657fe5b906000526020600020906004020160008201518160000160006101000a81548173ffffffffffffffffffffffffffffffffffffffff021916908373ffffffffffffffffffffffffffffffffffffffff1602179055506020820151816001019080519060200190611597929190611a61565b506040820151816002015560608201518160030160006101000a81548160ff0219169083151502179055509050506003600081548092919060010191905055507f7af415d53a12b0d8f17517437f0029e1a1b986305c2f7ba21d58e87cfc5817b583836001604051808473ffffffffffffffffffffffffffffffffffffffff1673ffffffffffffffffffffffffffffffffffffffff1681526020018060200183151515158152602001828103825284818151815260200191508051906020019080838360005b8381101561167857808201518184015260208101905061165d565b50505050905090810190601f1680156116a55780820380516001836020036101000a031916815260200191505b5094505050505060405180910390a1505050565b600080600160003373ffffffffffffffffffffffffffffffffffffffff1673ffffffffffffffffffffffffffffffffffffffff168152602001908152602001600020541415151561170957600080fd5b600115156002600160003373ffffffffffffffffffffffffffffffffffffffff1673ffffffffffffffffffffffffffffffffffffffff1681526020019081526020016000205481548110151561175b57fe5b906000526020600020906004020160030160009054906101000a900460ff16151514151561178857600080fd5b60058281548110151561179757fe5b90600052602060002090600a020190508060070160003373ffffffffffffffffffffffffffffffffffffffff1673ffffffffffffffffffffffffffffffffffffffff16815260200190815260200160002060009054906101000a900460ff1615151561180257600080fd5b60018160070160003373ffffffffffffffffffffffffffffffffffffffff1673ffffffffffffffffffffffffffffffffffffffff16815260200190815260200160002060006101000a81548160ff02191690831515021790555080600601600081548092919060010191905055507fb5262d02b72259a1a5ffe965a64a50bfa5d3ca8ddae6f5d98854d994432b1eec8233604051808381526020018273ffffffffffffffffffffffffffffffffffffffff1673ffffffffffffffffffffffffffffffffffffffff1681526020019250505060405180910390a15050565b6000809054906101000a900473ffffffffffffffffffffffffffffffffffffffff1673ffffffffffffffffffffffffffffffffffffffff163373ffffffffffffffffffffffffffffffffffffffff1614151561193a57600080fd5b806000806101000a81548173ffffffffffffffffffffffffffffffffffffffff021916908373ffffffffffffffffffffffffffffffffffffffff16021790555050565b8154818355818111156119aa57600a0281600a0283600052602060002091820191016119a99190611ae1565b5b505050565b828054600181600116156101000203166002900490600052602060002090601f016020900481019282601f106119f057805160ff1916838001178555611a1e565b82800160010185558215611a1e579182015b82811115611a1d578251825591602001919060010190611a02565b5b509050611a2b9190611b6b565b5090565b815481835581811115611a5c57600402816004028360005260206000209182019101611a5b9190611b90565b5b505050565b828054600181600116156101000203166002900490600052602060002090601f016020900481019282601f10611aa257805160ff1916838001178555611ad0565b82800160010185558215611ad0579182015b82811115611acf578251825591602001919060010190611ab4565b5b509050611add9190611b6b565b5090565b611b6891905b80821115611b6457600080820160006101000a81549073ffffffffffffffffffffffffffffffffffffffff021916905560018201600090556002820160009055600382016000611b379190611c02565b60048201600090556005820160006101000a81549060ff0219169055600682016000905550600a01611ae7565b5090565b90565b611b8d91905b80821115611b89576000816000905550600101611b71565b5090565b90565b611bff91905b80821115611bfb57600080820160006101000a81549073ffffffffffffffffffffffffffffffffffffffff0219169055600182016000611bd69190611c02565b60028201600090556003820160006101000a81549060ff021916905550600401611b96565b5090565b90565b50805460018160011615610100020316600290046000825580601f10611c285750611c47565b601f016020900490600052602060002090810190611c469190611b6b565b5b505600a165627a7a723058206344096e627425e23a9c077059c4de82df72671b41cb3ce780c57358432980060029",
  "source": "pragma solidity ^0.4.20;\n\ncontract Owned {\n    address public owner;\n\n    constructor()  public {\n        owner = msg.sender;\n    }\n\n    modifier onlyOwner {\n        require(msg.sender == owner);\n        _;\n    }\n\n    function transferOwnership(address newOwner) onlyOwner  public {\n        owner = newOwner;\n    }\n}\n\ncontract P2pi is Owned{\n\n    event memberAdded(address targetMember, string membername,bool isApproved);\n    event memberApproved(address targetMember, string membername,bool isApproved);\n\n    struct Member{\n        address memberAdd;\n        string name;\n        uint memberSince;\n        bool isApproved;\n    }\n\n    mapping(address => uint) public memberId;\n    Member[] public members;\n    uint public memberCount;\n\n    modifier onlyMembers{\n        require(memberId[msg.sender] !=0);\n        require(members[memberId[msg.sender]].isApproved == true);\n        _;\n    }\n    constructor() public{\n        addMember(0,\"\");\n        addMember(owner,'founder');\n    }\n    function addMember(address targetMember, string memberName) onlyOwner public{\n        uint id = memberId[targetMember];\n        if(id==0){\n          id = members.length++;\n          memberId[targetMember] = id;\n        }\n        members[id] = Member({memberAdd:targetMember,memberSince:now, name: memberName,isApproved:true});\n        memberCount++;\n        emit memberAdded(targetMember,memberName,true);\n    }\n\n    function join(string memberName) public {\n        require(memberId[msg.sender] == 0);\n        uint id = memberId[msg.sender];\n        if(id==0){\n          id = members.length++;\n          memberId[msg.sender] = id;\n        }\n        members[memberCount] = Member({memberAdd:msg.sender,memberSince:now, name: memberName,isApproved:false});\n        memberCount++;\n        emit memberAdded(msg.sender,memberName,false);\n    }\n    function approveMember(address targetMember) onlyOwner public {\n        require(memberId[targetMember] != 0);\n        uint id = memberId[targetMember];\n        members[id].isApproved = true;\n        emit memberApproved(targetMember,members[id].name,true);\n    }\n\n    event proposalAdded(uint proposapId,string desc);\n    event proposalJoined(uint proposalid, address targetMember);\n    event emiPayment(uint proposalId, address targetMember, uint256 amount);\n\n    struct Payments{\n        address memberAdd;\n        uint paymentTS;\n        uint amount;\n    }\n    mapping(address =>uint256) paymentCount;\n\n    struct Claim{\n        address claimer;\n        uint claimAmount;\n        string claimReason;\n        bool isApproved;\n        uint voteInSupport;\n        uint voteNotInSupport;\n        mapping(address => bool) voted;\n    }\n\n    struct Proposal{\n        address creator;\n        uint amount;\n        uint minAmount;\n        string desc;\n        bytes32 proposalHash;\n        bool isApproved;\n        uint memberCount;\n        mapping(address =>bool) isPart;\n        mapping(address => mapping(uint256 => Payments)) memberPayments;\n        mapping(address =>mapping(uint => Claim)) claims;\n    }\n\n\n    Proposal[] public proposals;\n    uint public numProposals;\n    Claim[] public claim;\n    mapping(address => uint) claimCount;\n\n    function newProposal(\n        uint weiAmount,\n        string description,\n        bytes32 ppHash\n        ) onlyMembers public returns(uint proposalId){\n            proposalId = proposals.length++;\n            Proposal storage p = proposals[proposalId];\n            p.creator = msg.sender;\n            p.minAmount = weiAmount;\n            p.desc = description;\n            p.proposalHash = ppHash;\n            p.isApproved = false;\n            p.isPart[msg.sender] = true;\n            p.memberCount++;\n            numProposals++;\n\n            emit proposalAdded(proposalId,description);\n\n            return proposalId;\n    }\n\n\n   function joinPorposal(uint proposalId) onlyMembers public{\n       Proposal storage p = proposals[proposalId];\n       require(!p.isPart[msg.sender]);\n       p.isPart[msg.sender] = true;\n       p.memberCount++;\n       emit proposalJoined(proposalId,msg.sender);\n   }\n\n   function checkIfPartOfProposal(uint proposalId) onlyMembers view public returns(bool isPart){\n     Proposal storage p = proposals[proposalId];\n     return p.isPart[msg.sender];\n   }\n\n  }\n",
  "sourcePath": "/Users/tejasghutukade/p2pi/contracts/P2pi.sol",
  "compiler": {
    "name": "solc",
    "version": "0.4.23+commit.124ca40d.Emscripten.clang"
  },
  "schemaVersion": "2.0.0",
  "updatedAt": "2018-05-30T15:50:50.115Z"
}